{
	"Contracts/Will.sol": {
		"Will": {
			"abi": [
				{
					"inputs": [],
					"stateMutability": "nonpayable",
					"type": "constructor"
				},
				{
					"anonymous": false,
					"inputs": [
						{
							"indexed": true,
							"internalType": "address",
							"name": "owner",
							"type": "address"
						},
						{
							"indexed": true,
							"internalType": "address",
							"name": "heir",
							"type": "address"
						},
						{
							"indexed": false,
							"internalType": "uint256",
							"name": "amount",
							"type": "uint256"
						}
					],
					"name": "Create",
					"type": "event"
				},
				{
					"anonymous": false,
					"inputs": [
						{
							"indexed": true,
							"internalType": "address",
							"name": "owner",
							"type": "address"
						},
						{
							"indexed": true,
							"internalType": "address",
							"name": "heir",
							"type": "address"
						},
						{
							"indexed": false,
							"internalType": "uint256",
							"name": "amount",
							"type": "uint256"
						}
					],
					"name": "Deceased",
					"type": "event"
				},
				{
					"inputs": [
						{
							"internalType": "address",
							"name": "owner",
							"type": "address"
						}
					],
					"name": "contracts",
					"outputs": [
						{
							"internalType": "address",
							"name": "heir",
							"type": "address"
						},
						{
							"internalType": "uint256",
							"name": "balance",
							"type": "uint256"
						}
					],
					"stateMutability": "view",
					"type": "function"
				},
				{
					"inputs": [
						{
							"internalType": "address",
							"name": "heir",
							"type": "address"
						}
					],
					"name": "create",
					"outputs": [],
					"stateMutability": "payable",
					"type": "function"
				},
				{
					"inputs": [
						{
							"internalType": "address",
							"name": "owner",
							"type": "address"
						}
					],
					"name": "deceased",
					"outputs": [],
					"stateMutability": "nonpayable",
					"type": "function"
				}
			],
			"devdoc": {
				"kind": "dev",
				"methods": {},
				"version": 1
			},
			"evm": {
				"assembly": "    /* \"Contracts/Will.sol\":63:1468  contract Will {... */\n  mstore(0x40, 0x80)\n    /* \"Contracts/Will.sol\":444:496  constructor() {... */\n  callvalue\n  dup1\n  iszero\n  tag_1\n  jumpi\n  0x00\n  dup1\n  revert\ntag_1:\n  pop\n    /* \"Contracts/Will.sol\":478:488  msg.sender */\n  caller\n    /* \"Contracts/Will.sol\":469:475  _admin */\n  0x00\n  dup1\n    /* \"Contracts/Will.sol\":469:488  _admin = msg.sender */\n  0x0100\n  exp\n  dup2\n  sload\n  dup2\n  0xffffffffffffffffffffffffffffffffffffffff\n  mul\n  not\n  and\n  swap1\n  dup4\n  0xffffffffffffffffffffffffffffffffffffffff\n  and\n  mul\n  or\n  swap1\n  sstore\n  pop\n    /* \"Contracts/Will.sol\":63:1468  contract Will {... */\n  dataSize(sub_0)\n  dup1\n  dataOffset(sub_0)\n  0x00\n  codecopy\n  0x00\n  return\nstop\n\nsub_0: assembly {\n        /* \"Contracts/Will.sol\":63:1468  contract Will {... */\n      mstore(0x40, 0x80)\n      jumpi(tag_1, lt(calldatasize, 0x04))\n      shr(0xe0, calldataload(0x00))\n      dup1\n      0x69dc9ff3\n      eq\n      tag_2\n      jumpi\n      dup1\n      0x9ed93318\n      eq\n      tag_3\n      jumpi\n      dup1\n      0xf1e8be48\n      eq\n      tag_4\n      jumpi\n    tag_1:\n      0x00\n      dup1\n      revert\n        /* \"Contracts/Will.sol\":1324:1465  function contracts(address owner) public view returns(address heir, uint balance) {... */\n    tag_2:\n      callvalue\n      dup1\n      iszero\n      tag_5\n      jumpi\n      0x00\n      dup1\n      revert\n    tag_5:\n      pop\n      tag_6\n      0x04\n      dup1\n      calldatasize\n      sub\n      dup2\n      add\n      swap1\n      tag_7\n      swap2\n      swap1\n      tag_8\n      jump\t// in\n    tag_7:\n      tag_9\n      jump\t// in\n    tag_6:\n      mload(0x40)\n      tag_10\n      swap3\n      swap2\n      swap1\n      tag_11\n      jump\t// in\n    tag_10:\n      mload(0x40)\n      dup1\n      swap2\n      sub\n      swap1\n      return\n        /* \"Contracts/Will.sol\":504:827  function create(address heir) public payable {... */\n    tag_3:\n      tag_12\n      0x04\n      dup1\n      calldatasize\n      sub\n      dup2\n      add\n      swap1\n      tag_13\n      swap2\n      swap1\n      tag_8\n      jump\t// in\n    tag_13:\n      tag_14\n      jump\t// in\n    tag_12:\n      stop\n        /* \"Contracts/Will.sol\":835:1316  function deceased(address owner) public {... */\n    tag_4:\n      callvalue\n      dup1\n      iszero\n      tag_15\n      jumpi\n      0x00\n      dup1\n      revert\n    tag_15:\n      pop\n      tag_16\n      0x04\n      dup1\n      calldatasize\n      sub\n      dup2\n      add\n      swap1\n      tag_17\n      swap2\n      swap1\n      tag_8\n      jump\t// in\n    tag_17:\n      tag_18\n      jump\t// in\n    tag_16:\n      stop\n        /* \"Contracts/Will.sol\":1324:1465  function contracts(address owner) public view returns(address heir, uint balance) {... */\n    tag_9:\n        /* \"Contracts/Will.sol\":1378:1390  address heir */\n      0x00\n        /* \"Contracts/Will.sol\":1392:1404  uint balance */\n      dup1\n        /* \"Contracts/Will.sol\":1425:1431  _heirs */\n      0x01\n        /* \"Contracts/Will.sol\":1425:1438  _heirs[owner] */\n      0x00\n        /* \"Contracts/Will.sol\":1432:1437  owner */\n      dup5\n        /* \"Contracts/Will.sol\":1425:1438  _heirs[owner] */\n      0xffffffffffffffffffffffffffffffffffffffff\n      and\n      0xffffffffffffffffffffffffffffffffffffffff\n      and\n      dup2\n      mstore\n      0x20\n      add\n      swap1\n      dup2\n      mstore\n      0x20\n      add\n      0x00\n      keccak256\n      0x00\n      swap1\n      sload\n      swap1\n      0x0100\n      exp\n      swap1\n      div\n      0xffffffffffffffffffffffffffffffffffffffff\n      and\n        /* \"Contracts/Will.sol\":1440:1449  _balances */\n      0x02\n        /* \"Contracts/Will.sol\":1440:1456  _balances[owner] */\n      0x00\n        /* \"Contracts/Will.sol\":1450:1455  owner */\n      dup6\n        /* \"Contracts/Will.sol\":1440:1456  _balances[owner] */\n      0xffffffffffffffffffffffffffffffffffffffff\n      and\n      0xffffffffffffffffffffffffffffffffffffffff\n      and\n      dup2\n      mstore\n      0x20\n      add\n      swap1\n      dup2\n      mstore\n      0x20\n      add\n      0x00\n      keccak256\n      sload\n        /* \"Contracts/Will.sol\":1417:1457  return (_heirs[owner], _balances[owner]) */\n      swap2\n      pop\n      swap2\n      pop\n        /* \"Contracts/Will.sol\":1324:1465  function contracts(address owner) public view returns(address heir, uint balance) {... */\n      swap2\n      pop\n      swap2\n      jump\t// out\n        /* \"Contracts/Will.sol\":504:827  function create(address heir) public payable {... */\n    tag_14:\n        /* \"Contracts/Will.sol\":580:581  0 */\n      0x00\n        /* \"Contracts/Will.sol\":568:577  msg.value */\n      callvalue\n        /* \"Contracts/Will.sol\":568:581  msg.value > 0 */\n      gt\n        /* \"Contracts/Will.sol\":560:615  require(msg.value > 0, \"Amount must greater than zero\") */\n      tag_21\n      jumpi\n      mload(0x40)\n      0x08c379a000000000000000000000000000000000000000000000000000000000\n      dup2\n      mstore\n      0x04\n      add\n      tag_22\n      swap1\n      tag_23\n      jump\t// in\n    tag_22:\n      mload(0x40)\n      dup1\n      swap2\n      sub\n      swap1\n      revert\n    tag_21:\n        /* \"Contracts/Will.sol\":659:660  0 */\n      0x00\n        /* \"Contracts/Will.sol\":634:643  _balances */\n      0x02\n        /* \"Contracts/Will.sol\":634:655  _balances[msg.sender] */\n      0x00\n        /* \"Contracts/Will.sol\":644:654  msg.sender */\n      caller\n        /* \"Contracts/Will.sol\":634:655  _balances[msg.sender] */\n      0xffffffffffffffffffffffffffffffffffffffff\n      and\n      0xffffffffffffffffffffffffffffffffffffffff\n      and\n      dup2\n      mstore\n      0x20\n      add\n      swap1\n      dup2\n      mstore\n      0x20\n      add\n      0x00\n      keccak256\n      sload\n        /* \"Contracts/Will.sol\":634:660  _balances[msg.sender] <= 0 */\n      gt\n      iszero\n        /* \"Contracts/Will.sol\":626:690  require(_balances[msg.sender] <= 0, \"Your 'will' already exist\") */\n      tag_24\n      jumpi\n      mload(0x40)\n      0x08c379a000000000000000000000000000000000000000000000000000000000\n      dup2\n      mstore\n      0x04\n      add\n      tag_25\n      swap1\n      tag_26\n      jump\t// in\n    tag_25:\n      mload(0x40)\n      dup1\n      swap2\n      sub\n      swap1\n      revert\n    tag_24:\n        /* \"Contracts/Will.sol\":724:728  heir */\n      dup1\n        /* \"Contracts/Will.sol\":703:709  _heirs */\n      0x01\n        /* \"Contracts/Will.sol\":703:721  _heirs[msg.sender] */\n      0x00\n        /* \"Contracts/Will.sol\":710:720  msg.sender */\n      caller\n        /* \"Contracts/Will.sol\":703:721  _heirs[msg.sender] */\n      0xffffffffffffffffffffffffffffffffffffffff\n      and\n      0xffffffffffffffffffffffffffffffffffffffff\n      and\n      dup2\n      mstore\n      0x20\n      add\n      swap1\n      dup2\n      mstore\n      0x20\n      add\n      0x00\n      keccak256\n      0x00\n        /* \"Contracts/Will.sol\":703:728  _heirs[msg.sender] = heir */\n      0x0100\n      exp\n      dup2\n      sload\n      dup2\n      0xffffffffffffffffffffffffffffffffffffffff\n      mul\n      not\n      and\n      swap1\n      dup4\n      0xffffffffffffffffffffffffffffffffffffffff\n      and\n      mul\n      or\n      swap1\n      sstore\n      pop\n        /* \"Contracts/Will.sol\":757:766  msg.value */\n      callvalue\n        /* \"Contracts/Will.sol\":733:742  _balances */\n      0x02\n        /* \"Contracts/Will.sol\":733:754  _balances[msg.sender] */\n      0x00\n        /* \"Contracts/Will.sol\":743:753  msg.sender */\n      caller\n        /* \"Contracts/Will.sol\":733:754  _balances[msg.sender] */\n      0xffffffffffffffffffffffffffffffffffffffff\n      and\n      0xffffffffffffffffffffffffffffffffffffffff\n      and\n      dup2\n      mstore\n      0x20\n      add\n      swap1\n      dup2\n      mstore\n      0x20\n      add\n      0x00\n      keccak256\n        /* \"Contracts/Will.sol\":733:766  _balances[msg.sender] = msg.value */\n      dup2\n      swap1\n      sstore\n      pop\n        /* \"Contracts/Will.sol\":803:807  heir */\n      dup1\n        /* \"Contracts/Will.sol\":784:819  Create(msg.sender, heir, msg.value) */\n      0xffffffffffffffffffffffffffffffffffffffff\n      and\n        /* \"Contracts/Will.sol\":791:801  msg.sender */\n      caller\n        /* \"Contracts/Will.sol\":784:819  Create(msg.sender, heir, msg.value) */\n      0xffffffffffffffffffffffffffffffffffffffff\n      and\n      0x923f1fa2c44c3aec741bc0bb74cfdb2d73d61ea532799cda54b2941d89ab9fc6\n        /* \"Contracts/Will.sol\":809:818  msg.value */\n      callvalue\n        /* \"Contracts/Will.sol\":784:819  Create(msg.sender, heir, msg.value) */\n      mload(0x40)\n      tag_27\n      swap2\n      swap1\n      tag_28\n      jump\t// in\n    tag_27:\n      mload(0x40)\n      dup1\n      swap2\n      sub\n      swap1\n      log3\n        /* \"Contracts/Will.sol\":504:827  function create(address heir) public payable {... */\n      pop\n      jump\t// out\n        /* \"Contracts/Will.sol\":835:1316  function deceased(address owner) public {... */\n    tag_18:\n        /* \"Contracts/Will.sol\":908:914  _admin */\n      0x00\n      dup1\n      sload\n      swap1\n      0x0100\n      exp\n      swap1\n      div\n      0xffffffffffffffffffffffffffffffffffffffff\n      and\n        /* \"Contracts/Will.sol\":894:914  msg.sender == _admin */\n      0xffffffffffffffffffffffffffffffffffffffff\n      and\n        /* \"Contracts/Will.sol\":894:904  msg.sender */\n      caller\n        /* \"Contracts/Will.sol\":894:914  msg.sender == _admin */\n      0xffffffffffffffffffffffffffffffffffffffff\n      and\n      eq\n        /* \"Contracts/Will.sol\":886:945  require(msg.sender == _admin, \"Your don't have permission\") */\n      tag_30\n      jumpi\n      mload(0x40)\n      0x08c379a000000000000000000000000000000000000000000000000000000000\n      dup2\n      mstore\n      0x04\n      add\n      tag_31\n      swap1\n      tag_32\n      jump\t// in\n    tag_31:\n      mload(0x40)\n      dup1\n      swap2\n      sub\n      swap1\n      revert\n    tag_30:\n        /* \"Contracts/Will.sol\":983:984  0 */\n      0x00\n        /* \"Contracts/Will.sol\":964:973  _balances */\n      0x02\n        /* \"Contracts/Will.sol\":964:980  _balances[owner] */\n      0x00\n        /* \"Contracts/Will.sol\":974:979  owner */\n      dup4\n        /* \"Contracts/Will.sol\":964:980  _balances[owner] */\n      0xffffffffffffffffffffffffffffffffffffffff\n      and\n      0xffffffffffffffffffffffffffffffffffffffff\n      and\n      dup2\n      mstore\n      0x20\n      add\n      swap1\n      dup2\n      mstore\n      0x20\n      add\n      0x00\n      keccak256\n      sload\n        /* \"Contracts/Will.sol\":964:984  _balances[owner] > 0 */\n      gt\n        /* \"Contracts/Will.sol\":956:1001  require(_balances[owner] > 0, \"no testament\") */\n      tag_33\n      jumpi\n      mload(0x40)\n      0x08c379a000000000000000000000000000000000000000000000000000000000\n      dup2\n      mstore\n      0x04\n      add\n      tag_34\n      swap1\n      tag_35\n      jump\t// in\n    tag_34:\n      mload(0x40)\n      dup1\n      swap2\n      sub\n      swap1\n      revert\n    tag_33:\n        /* \"Contracts/Will.sol\":1022:1028  _heirs */\n      0x01\n        /* \"Contracts/Will.sol\":1022:1035  _heirs[owner] */\n      0x00\n        /* \"Contracts/Will.sol\":1029:1034  owner */\n      dup3\n        /* \"Contracts/Will.sol\":1022:1035  _heirs[owner] */\n      0xffffffffffffffffffffffffffffffffffffffff\n      and\n      0xffffffffffffffffffffffffffffffffffffffff\n      and\n      dup2\n      mstore\n      0x20\n      add\n      swap1\n      dup2\n      mstore\n      0x20\n      add\n      0x00\n      keccak256\n      0x00\n      swap1\n      sload\n      swap1\n      0x0100\n      exp\n      swap1\n      div\n      0xffffffffffffffffffffffffffffffffffffffff\n      and\n        /* \"Contracts/Will.sol\":1014:1045  payable(_heirs[owner]).transfer */\n      0xffffffffffffffffffffffffffffffffffffffff\n      and\n        /* \"Contracts/Will.sol\":1014:1063  payable(_heirs[owner]).transfer(_balances[owner]) */\n      0x08fc\n        /* \"Contracts/Will.sol\":1046:1055  _balances */\n      0x02\n        /* \"Contracts/Will.sol\":1046:1062  _balances[owner] */\n      0x00\n        /* \"Contracts/Will.sol\":1056:1061  owner */\n      dup5\n        /* \"Contracts/Will.sol\":1046:1062  _balances[owner] */\n      0xffffffffffffffffffffffffffffffffffffffff\n      and\n      0xffffffffffffffffffffffffffffffffffffffff\n      and\n      dup2\n      mstore\n      0x20\n      add\n      swap1\n      dup2\n      mstore\n      0x20\n      add\n      0x00\n      keccak256\n      sload\n        /* \"Contracts/Will.sol\":1014:1063  payable(_heirs[owner]).transfer(_balances[owner]) */\n      swap1\n      dup2\n      iszero\n      mul\n      swap1\n      mload(0x40)\n      0x00\n      mload(0x40)\n      dup1\n      dup4\n      sub\n      dup2\n      dup6\n      dup9\n      dup9\n      call\n      swap4\n      pop\n      pop\n      pop\n      pop\n      iszero\n      dup1\n      iszero\n      tag_37\n      jumpi\n      returndatasize\n      0x00\n      dup1\n      returndatacopy\n      revert(0x00, returndatasize)\n    tag_37:\n      pop\n        /* \"Contracts/Will.sol\":1208:1214  _heirs */\n      0x01\n        /* \"Contracts/Will.sol\":1208:1221  _heirs[owner] */\n      0x00\n        /* \"Contracts/Will.sol\":1215:1220  owner */\n      dup3\n        /* \"Contracts/Will.sol\":1208:1221  _heirs[owner] */\n      0xffffffffffffffffffffffffffffffffffffffff\n      and\n      0xffffffffffffffffffffffffffffffffffffffff\n      and\n      dup2\n      mstore\n      0x20\n      add\n      swap1\n      dup2\n      mstore\n      0x20\n      add\n      0x00\n      keccak256\n      0x00\n      swap1\n      sload\n      swap1\n      0x0100\n      exp\n      swap1\n      div\n      0xffffffffffffffffffffffffffffffffffffffff\n      and\n        /* \"Contracts/Will.sol\":1192:1240  Deceased(owner, _heirs[owner], _balances[owner]) */\n      0xffffffffffffffffffffffffffffffffffffffff\n      and\n        /* \"Contracts/Will.sol\":1201:1206  owner */\n      dup2\n        /* \"Contracts/Will.sol\":1192:1240  Deceased(owner, _heirs[owner], _balances[owner]) */\n      0xffffffffffffffffffffffffffffffffffffffff\n      and\n      0x097a05195c638d41e5eb18e70caf11d13e02b760256803c180748a07982c42b3\n        /* \"Contracts/Will.sol\":1223:1232  _balances */\n      0x02\n        /* \"Contracts/Will.sol\":1223:1239  _balances[owner] */\n      0x00\n        /* \"Contracts/Will.sol\":1233:1238  owner */\n      dup6\n        /* \"Contracts/Will.sol\":1223:1239  _balances[owner] */\n      0xffffffffffffffffffffffffffffffffffffffff\n      and\n      0xffffffffffffffffffffffffffffffffffffffff\n      and\n      dup2\n      mstore\n      0x20\n      add\n      swap1\n      dup2\n      mstore\n      0x20\n      add\n      0x00\n      keccak256\n      sload\n        /* \"Contracts/Will.sol\":1192:1240  Deceased(owner, _heirs[owner], _balances[owner]) */\n      mload(0x40)\n      tag_38\n      swap2\n      swap1\n      tag_28\n      jump\t// in\n    tag_38:\n      mload(0x40)\n      dup1\n      swap2\n      sub\n      swap1\n      log3\n        /* \"Contracts/Will.sol\":1275:1276  0 */\n      0x00\n        /* \"Contracts/Will.sol\":1251:1257  _heirs */\n      0x01\n        /* \"Contracts/Will.sol\":1251:1264  _heirs[owner] */\n      0x00\n        /* \"Contracts/Will.sol\":1258:1263  owner */\n      dup4\n        /* \"Contracts/Will.sol\":1251:1264  _heirs[owner] */\n      0xffffffffffffffffffffffffffffffffffffffff\n      and\n      0xffffffffffffffffffffffffffffffffffffffff\n      and\n      dup2\n      mstore\n      0x20\n      add\n      swap1\n      dup2\n      mstore\n      0x20\n      add\n      0x00\n      keccak256\n      0x00\n        /* \"Contracts/Will.sol\":1251:1277  _heirs[owner] = address(0) */\n      0x0100\n      exp\n      dup2\n      sload\n      dup2\n      0xffffffffffffffffffffffffffffffffffffffff\n      mul\n      not\n      and\n      swap1\n      dup4\n      0xffffffffffffffffffffffffffffffffffffffff\n      and\n      mul\n      or\n      swap1\n      sstore\n      pop\n        /* \"Contracts/Will.sol\":1307:1308  0 */\n      0x00\n        /* \"Contracts/Will.sol\":1288:1297  _balances */\n      0x02\n        /* \"Contracts/Will.sol\":1288:1304  _balances[owner] */\n      0x00\n        /* \"Contracts/Will.sol\":1298:1303  owner */\n      dup4\n        /* \"Contracts/Will.sol\":1288:1304  _balances[owner] */\n      0xffffffffffffffffffffffffffffffffffffffff\n      and\n      0xffffffffffffffffffffffffffffffffffffffff\n      and\n      dup2\n      mstore\n      0x20\n      add\n      swap1\n      dup2\n      mstore\n      0x20\n      add\n      0x00\n      keccak256\n        /* \"Contracts/Will.sol\":1288:1308  _balances[owner] = 0 */\n      dup2\n      swap1\n      sstore\n      pop\n        /* \"Contracts/Will.sol\":835:1316  function deceased(address owner) public {... */\n      pop\n      jump\t// out\n        /* \"#utility.yul\":88:205   */\n    tag_40:\n        /* \"#utility.yul\":197:198   */\n      0x00\n        /* \"#utility.yul\":194:195   */\n      dup1\n        /* \"#utility.yul\":187:199   */\n      revert\n        /* \"#utility.yul\":334:460   */\n    tag_42:\n        /* \"#utility.yul\":371:378   */\n      0x00\n        /* \"#utility.yul\":411:453   */\n      0xffffffffffffffffffffffffffffffffffffffff\n        /* \"#utility.yul\":404:409   */\n      dup3\n        /* \"#utility.yul\":400:454   */\n      and\n        /* \"#utility.yul\":389:454   */\n      swap1\n      pop\n        /* \"#utility.yul\":334:460   */\n      swap2\n      swap1\n      pop\n      jump\t// out\n        /* \"#utility.yul\":466:562   */\n    tag_43:\n        /* \"#utility.yul\":503:510   */\n      0x00\n        /* \"#utility.yul\":532:556   */\n      tag_64\n        /* \"#utility.yul\":550:555   */\n      dup3\n        /* \"#utility.yul\":532:556   */\n      tag_42\n      jump\t// in\n    tag_64:\n        /* \"#utility.yul\":521:556   */\n      swap1\n      pop\n        /* \"#utility.yul\":466:562   */\n      swap2\n      swap1\n      pop\n      jump\t// out\n        /* \"#utility.yul\":568:690   */\n    tag_44:\n        /* \"#utility.yul\":641:665   */\n      tag_66\n        /* \"#utility.yul\":659:664   */\n      dup2\n        /* \"#utility.yul\":641:665   */\n      tag_43\n      jump\t// in\n    tag_66:\n        /* \"#utility.yul\":634:639   */\n      dup2\n        /* \"#utility.yul\":631:666   */\n      eq\n        /* \"#utility.yul\":621:684   */\n      tag_67\n      jumpi\n        /* \"#utility.yul\":680:681   */\n      0x00\n        /* \"#utility.yul\":677:678   */\n      dup1\n        /* \"#utility.yul\":670:682   */\n      revert\n        /* \"#utility.yul\":621:684   */\n    tag_67:\n        /* \"#utility.yul\":568:690   */\n      pop\n      jump\t// out\n        /* \"#utility.yul\":696:835   */\n    tag_45:\n        /* \"#utility.yul\":742:747   */\n      0x00\n        /* \"#utility.yul\":780:786   */\n      dup2\n        /* \"#utility.yul\":767:787   */\n      calldataload\n        /* \"#utility.yul\":758:787   */\n      swap1\n      pop\n        /* \"#utility.yul\":796:829   */\n      tag_69\n        /* \"#utility.yul\":823:828   */\n      dup2\n        /* \"#utility.yul\":796:829   */\n      tag_44\n      jump\t// in\n    tag_69:\n        /* \"#utility.yul\":696:835   */\n      swap3\n      swap2\n      pop\n      pop\n      jump\t// out\n        /* \"#utility.yul\":841:1170   */\n    tag_8:\n        /* \"#utility.yul\":900:906   */\n      0x00\n        /* \"#utility.yul\":949:951   */\n      0x20\n        /* \"#utility.yul\":937:946   */\n      dup3\n        /* \"#utility.yul\":928:935   */\n      dup5\n        /* \"#utility.yul\":924:947   */\n      sub\n        /* \"#utility.yul\":920:952   */\n      slt\n        /* \"#utility.yul\":917:1036   */\n      iszero\n      tag_71\n      jumpi\n        /* \"#utility.yul\":955:1034   */\n      tag_72\n      tag_40\n      jump\t// in\n    tag_72:\n        /* \"#utility.yul\":917:1036   */\n    tag_71:\n        /* \"#utility.yul\":1075:1076   */\n      0x00\n        /* \"#utility.yul\":1100:1153   */\n      tag_73\n        /* \"#utility.yul\":1145:1152   */\n      dup5\n        /* \"#utility.yul\":1136:1142   */\n      dup3\n        /* \"#utility.yul\":1125:1134   */\n      dup6\n        /* \"#utility.yul\":1121:1143   */\n      add\n        /* \"#utility.yul\":1100:1153   */\n      tag_45\n      jump\t// in\n    tag_73:\n        /* \"#utility.yul\":1090:1153   */\n      swap2\n      pop\n        /* \"#utility.yul\":1046:1163   */\n      pop\n        /* \"#utility.yul\":841:1170   */\n      swap3\n      swap2\n      pop\n      pop\n      jump\t// out\n        /* \"#utility.yul\":1176:1294   */\n    tag_46:\n        /* \"#utility.yul\":1263:1287   */\n      tag_75\n        /* \"#utility.yul\":1281:1286   */\n      dup2\n        /* \"#utility.yul\":1263:1287   */\n      tag_43\n      jump\t// in\n    tag_75:\n        /* \"#utility.yul\":1258:1261   */\n      dup3\n        /* \"#utility.yul\":1251:1288   */\n      mstore\n        /* \"#utility.yul\":1176:1294   */\n      pop\n      pop\n      jump\t// out\n        /* \"#utility.yul\":1300:1377   */\n    tag_47:\n        /* \"#utility.yul\":1337:1344   */\n      0x00\n        /* \"#utility.yul\":1366:1371   */\n      dup2\n        /* \"#utility.yul\":1355:1371   */\n      swap1\n      pop\n        /* \"#utility.yul\":1300:1377   */\n      swap2\n      swap1\n      pop\n      jump\t// out\n        /* \"#utility.yul\":1383:1501   */\n    tag_48:\n        /* \"#utility.yul\":1470:1494   */\n      tag_78\n        /* \"#utility.yul\":1488:1493   */\n      dup2\n        /* \"#utility.yul\":1470:1494   */\n      tag_47\n      jump\t// in\n    tag_78:\n        /* \"#utility.yul\":1465:1468   */\n      dup3\n        /* \"#utility.yul\":1458:1495   */\n      mstore\n        /* \"#utility.yul\":1383:1501   */\n      pop\n      pop\n      jump\t// out\n        /* \"#utility.yul\":1507:1839   */\n    tag_11:\n        /* \"#utility.yul\":1628:1632   */\n      0x00\n        /* \"#utility.yul\":1666:1668   */\n      0x40\n        /* \"#utility.yul\":1655:1664   */\n      dup3\n        /* \"#utility.yul\":1651:1669   */\n      add\n        /* \"#utility.yul\":1643:1669   */\n      swap1\n      pop\n        /* \"#utility.yul\":1679:1750   */\n      tag_80\n        /* \"#utility.yul\":1747:1748   */\n      0x00\n        /* \"#utility.yul\":1736:1745   */\n      dup4\n        /* \"#utility.yul\":1732:1749   */\n      add\n        /* \"#utility.yul\":1723:1729   */\n      dup6\n        /* \"#utility.yul\":1679:1750   */\n      tag_46\n      jump\t// in\n    tag_80:\n        /* \"#utility.yul\":1760:1832   */\n      tag_81\n        /* \"#utility.yul\":1828:1830   */\n      0x20\n        /* \"#utility.yul\":1817:1826   */\n      dup4\n        /* \"#utility.yul\":1813:1831   */\n      add\n        /* \"#utility.yul\":1804:1810   */\n      dup5\n        /* \"#utility.yul\":1760:1832   */\n      tag_48\n      jump\t// in\n    tag_81:\n        /* \"#utility.yul\":1507:1839   */\n      swap4\n      swap3\n      pop\n      pop\n      pop\n      jump\t// out\n        /* \"#utility.yul\":1845:2014   */\n    tag_49:\n        /* \"#utility.yul\":1929:1940   */\n      0x00\n        /* \"#utility.yul\":1963:1969   */\n      dup3\n        /* \"#utility.yul\":1958:1961   */\n      dup3\n        /* \"#utility.yul\":1951:1970   */\n      mstore\n        /* \"#utility.yul\":2003:2007   */\n      0x20\n        /* \"#utility.yul\":1998:2001   */\n      dup3\n        /* \"#utility.yul\":1994:2008   */\n      add\n        /* \"#utility.yul\":1979:2008   */\n      swap1\n      pop\n        /* \"#utility.yul\":1845:2014   */\n      swap3\n      swap2\n      pop\n      pop\n      jump\t// out\n        /* \"#utility.yul\":2020:2199   */\n    tag_50:\n        /* \"#utility.yul\":2160:2191   */\n      0x416d6f756e74206d7573742067726561746572207468616e207a65726f000000\n        /* \"#utility.yul\":2156:2157   */\n      0x00\n        /* \"#utility.yul\":2148:2154   */\n      dup3\n        /* \"#utility.yul\":2144:2158   */\n      add\n        /* \"#utility.yul\":2137:2192   */\n      mstore\n        /* \"#utility.yul\":2020:2199   */\n      pop\n      jump\t// out\n        /* \"#utility.yul\":2205:2571   */\n    tag_51:\n        /* \"#utility.yul\":2347:2350   */\n      0x00\n        /* \"#utility.yul\":2368:2435   */\n      tag_85\n        /* \"#utility.yul\":2432:2434   */\n      0x1d\n        /* \"#utility.yul\":2427:2430   */\n      dup4\n        /* \"#utility.yul\":2368:2435   */\n      tag_49\n      jump\t// in\n    tag_85:\n        /* \"#utility.yul\":2361:2435   */\n      swap2\n      pop\n        /* \"#utility.yul\":2444:2537   */\n      tag_86\n        /* \"#utility.yul\":2533:2536   */\n      dup3\n        /* \"#utility.yul\":2444:2537   */\n      tag_50\n      jump\t// in\n    tag_86:\n        /* \"#utility.yul\":2562:2564   */\n      0x20\n        /* \"#utility.yul\":2557:2560   */\n      dup3\n        /* \"#utility.yul\":2553:2565   */\n      add\n        /* \"#utility.yul\":2546:2565   */\n      swap1\n      pop\n        /* \"#utility.yul\":2205:2571   */\n      swap2\n      swap1\n      pop\n      jump\t// out\n        /* \"#utility.yul\":2577:2996   */\n    tag_23:\n        /* \"#utility.yul\":2743:2747   */\n      0x00\n        /* \"#utility.yul\":2781:2783   */\n      0x20\n        /* \"#utility.yul\":2770:2779   */\n      dup3\n        /* \"#utility.yul\":2766:2784   */\n      add\n        /* \"#utility.yul\":2758:2784   */\n      swap1\n      pop\n        /* \"#utility.yul\":2830:2839   */\n      dup2\n        /* \"#utility.yul\":2824:2828   */\n      dup2\n        /* \"#utility.yul\":2820:2840   */\n      sub\n        /* \"#utility.yul\":2816:2817   */\n      0x00\n        /* \"#utility.yul\":2805:2814   */\n      dup4\n        /* \"#utility.yul\":2801:2818   */\n      add\n        /* \"#utility.yul\":2794:2841   */\n      mstore\n        /* \"#utility.yul\":2858:2989   */\n      tag_88\n        /* \"#utility.yul\":2984:2988   */\n      dup2\n        /* \"#utility.yul\":2858:2989   */\n      tag_51\n      jump\t// in\n    tag_88:\n        /* \"#utility.yul\":2850:2989   */\n      swap1\n      pop\n        /* \"#utility.yul\":2577:2996   */\n      swap2\n      swap1\n      pop\n      jump\t// out\n        /* \"#utility.yul\":3002:3177   */\n    tag_52:\n        /* \"#utility.yul\":3142:3169   */\n      0x596f7572202777696c6c2720616c726561647920657869737400000000000000\n        /* \"#utility.yul\":3138:3139   */\n      0x00\n        /* \"#utility.yul\":3130:3136   */\n      dup3\n        /* \"#utility.yul\":3126:3140   */\n      add\n        /* \"#utility.yul\":3119:3170   */\n      mstore\n        /* \"#utility.yul\":3002:3177   */\n      pop\n      jump\t// out\n        /* \"#utility.yul\":3183:3549   */\n    tag_53:\n        /* \"#utility.yul\":3325:3328   */\n      0x00\n        /* \"#utility.yul\":3346:3413   */\n      tag_91\n        /* \"#utility.yul\":3410:3412   */\n      0x19\n        /* \"#utility.yul\":3405:3408   */\n      dup4\n        /* \"#utility.yul\":3346:3413   */\n      tag_49\n      jump\t// in\n    tag_91:\n        /* \"#utility.yul\":3339:3413   */\n      swap2\n      pop\n        /* \"#utility.yul\":3422:3515   */\n      tag_92\n        /* \"#utility.yul\":3511:3514   */\n      dup3\n        /* \"#utility.yul\":3422:3515   */\n      tag_52\n      jump\t// in\n    tag_92:\n        /* \"#utility.yul\":3540:3542   */\n      0x20\n        /* \"#utility.yul\":3535:3538   */\n      dup3\n        /* \"#utility.yul\":3531:3543   */\n      add\n        /* \"#utility.yul\":3524:3543   */\n      swap1\n      pop\n        /* \"#utility.yul\":3183:3549   */\n      swap2\n      swap1\n      pop\n      jump\t// out\n        /* \"#utility.yul\":3555:3974   */\n    tag_26:\n        /* \"#utility.yul\":3721:3725   */\n      0x00\n        /* \"#utility.yul\":3759:3761   */\n      0x20\n        /* \"#utility.yul\":3748:3757   */\n      dup3\n        /* \"#utility.yul\":3744:3762   */\n      add\n        /* \"#utility.yul\":3736:3762   */\n      swap1\n      pop\n        /* \"#utility.yul\":3808:3817   */\n      dup2\n        /* \"#utility.yul\":3802:3806   */\n      dup2\n        /* \"#utility.yul\":3798:3818   */\n      sub\n        /* \"#utility.yul\":3794:3795   */\n      0x00\n        /* \"#utility.yul\":3783:3792   */\n      dup4\n        /* \"#utility.yul\":3779:3796   */\n      add\n        /* \"#utility.yul\":3772:3819   */\n      mstore\n        /* \"#utility.yul\":3836:3967   */\n      tag_94\n        /* \"#utility.yul\":3962:3966   */\n      dup2\n        /* \"#utility.yul\":3836:3967   */\n      tag_53\n      jump\t// in\n    tag_94:\n        /* \"#utility.yul\":3828:3967   */\n      swap1\n      pop\n        /* \"#utility.yul\":3555:3974   */\n      swap2\n      swap1\n      pop\n      jump\t// out\n        /* \"#utility.yul\":3980:4202   */\n    tag_28:\n        /* \"#utility.yul\":4073:4077   */\n      0x00\n        /* \"#utility.yul\":4111:4113   */\n      0x20\n        /* \"#utility.yul\":4100:4109   */\n      dup3\n        /* \"#utility.yul\":4096:4114   */\n      add\n        /* \"#utility.yul\":4088:4114   */\n      swap1\n      pop\n        /* \"#utility.yul\":4124:4195   */\n      tag_96\n        /* \"#utility.yul\":4192:4193   */\n      0x00\n        /* \"#utility.yul\":4181:4190   */\n      dup4\n        /* \"#utility.yul\":4177:4194   */\n      add\n        /* \"#utility.yul\":4168:4174   */\n      dup5\n        /* \"#utility.yul\":4124:4195   */\n      tag_48\n      jump\t// in\n    tag_96:\n        /* \"#utility.yul\":3980:4202   */\n      swap3\n      swap2\n      pop\n      pop\n      jump\t// out\n        /* \"#utility.yul\":4208:4384   */\n    tag_54:\n        /* \"#utility.yul\":4348:4376   */\n      0x596f757220646f6e27742068617665207065726d697373696f6e000000000000\n        /* \"#utility.yul\":4344:4345   */\n      0x00\n        /* \"#utility.yul\":4336:4342   */\n      dup3\n        /* \"#utility.yul\":4332:4346   */\n      add\n        /* \"#utility.yul\":4325:4377   */\n      mstore\n        /* \"#utility.yul\":4208:4384   */\n      pop\n      jump\t// out\n        /* \"#utility.yul\":4390:4756   */\n    tag_55:\n        /* \"#utility.yul\":4532:4535   */\n      0x00\n        /* \"#utility.yul\":4553:4620   */\n      tag_99\n        /* \"#utility.yul\":4617:4619   */\n      0x1a\n        /* \"#utility.yul\":4612:4615   */\n      dup4\n        /* \"#utility.yul\":4553:4620   */\n      tag_49\n      jump\t// in\n    tag_99:\n        /* \"#utility.yul\":4546:4620   */\n      swap2\n      pop\n        /* \"#utility.yul\":4629:4722   */\n      tag_100\n        /* \"#utility.yul\":4718:4721   */\n      dup3\n        /* \"#utility.yul\":4629:4722   */\n      tag_54\n      jump\t// in\n    tag_100:\n        /* \"#utility.yul\":4747:4749   */\n      0x20\n        /* \"#utility.yul\":4742:4745   */\n      dup3\n        /* \"#utility.yul\":4738:4750   */\n      add\n        /* \"#utility.yul\":4731:4750   */\n      swap1\n      pop\n        /* \"#utility.yul\":4390:4756   */\n      swap2\n      swap1\n      pop\n      jump\t// out\n        /* \"#utility.yul\":4762:5181   */\n    tag_32:\n        /* \"#utility.yul\":4928:4932   */\n      0x00\n        /* \"#utility.yul\":4966:4968   */\n      0x20\n        /* \"#utility.yul\":4955:4964   */\n      dup3\n        /* \"#utility.yul\":4951:4969   */\n      add\n        /* \"#utility.yul\":4943:4969   */\n      swap1\n      pop\n        /* \"#utility.yul\":5015:5024   */\n      dup2\n        /* \"#utility.yul\":5009:5013   */\n      dup2\n        /* \"#utility.yul\":5005:5025   */\n      sub\n        /* \"#utility.yul\":5001:5002   */\n      0x00\n        /* \"#utility.yul\":4990:4999   */\n      dup4\n        /* \"#utility.yul\":4986:5003   */\n      add\n        /* \"#utility.yul\":4979:5026   */\n      mstore\n        /* \"#utility.yul\":5043:5174   */\n      tag_102\n        /* \"#utility.yul\":5169:5173   */\n      dup2\n        /* \"#utility.yul\":5043:5174   */\n      tag_55\n      jump\t// in\n    tag_102:\n        /* \"#utility.yul\":5035:5174   */\n      swap1\n      pop\n        /* \"#utility.yul\":4762:5181   */\n      swap2\n      swap1\n      pop\n      jump\t// out\n        /* \"#utility.yul\":5187:5349   */\n    tag_56:\n        /* \"#utility.yul\":5327:5341   */\n      0x6e6f2074657374616d656e740000000000000000000000000000000000000000\n        /* \"#utility.yul\":5323:5324   */\n      0x00\n        /* \"#utility.yul\":5315:5321   */\n      dup3\n        /* \"#utility.yul\":5311:5325   */\n      add\n        /* \"#utility.yul\":5304:5342   */\n      mstore\n        /* \"#utility.yul\":5187:5349   */\n      pop\n      jump\t// out\n        /* \"#utility.yul\":5355:5721   */\n    tag_57:\n        /* \"#utility.yul\":5497:5500   */\n      0x00\n        /* \"#utility.yul\":5518:5585   */\n      tag_105\n        /* \"#utility.yul\":5582:5584   */\n      0x0c\n        /* \"#utility.yul\":5577:5580   */\n      dup4\n        /* \"#utility.yul\":5518:5585   */\n      tag_49\n      jump\t// in\n    tag_105:\n        /* \"#utility.yul\":5511:5585   */\n      swap2\n      pop\n        /* \"#utility.yul\":5594:5687   */\n      tag_106\n        /* \"#utility.yul\":5683:5686   */\n      dup3\n        /* \"#utility.yul\":5594:5687   */\n      tag_56\n      jump\t// in\n    tag_106:\n        /* \"#utility.yul\":5712:5714   */\n      0x20\n        /* \"#utility.yul\":5707:5710   */\n      dup3\n        /* \"#utility.yul\":5703:5715   */\n      add\n        /* \"#utility.yul\":5696:5715   */\n      swap1\n      pop\n        /* \"#utility.yul\":5355:5721   */\n      swap2\n      swap1\n      pop\n      jump\t// out\n        /* \"#utility.yul\":5727:6146   */\n    tag_35:\n        /* \"#utility.yul\":5893:5897   */\n      0x00\n        /* \"#utility.yul\":5931:5933   */\n      0x20\n        /* \"#utility.yul\":5920:5929   */\n      dup3\n        /* \"#utility.yul\":5916:5934   */\n      add\n        /* \"#utility.yul\":5908:5934   */\n      swap1\n      pop\n        /* \"#utility.yul\":5980:5989   */\n      dup2\n        /* \"#utility.yul\":5974:5978   */\n      dup2\n        /* \"#utility.yul\":5970:5990   */\n      sub\n        /* \"#utility.yul\":5966:5967   */\n      0x00\n        /* \"#utility.yul\":5955:5964   */\n      dup4\n        /* \"#utility.yul\":5951:5968   */\n      add\n        /* \"#utility.yul\":5944:5991   */\n      mstore\n        /* \"#utility.yul\":6008:6139   */\n      tag_108\n        /* \"#utility.yul\":6134:6138   */\n      dup2\n        /* \"#utility.yul\":6008:6139   */\n      tag_57\n      jump\t// in\n    tag_108:\n        /* \"#utility.yul\":6000:6139   */\n      swap1\n      pop\n        /* \"#utility.yul\":5727:6146   */\n      swap2\n      swap1\n      pop\n      jump\t// out\n\n    auxdata: 0xa26469706673582212203d74ae664985e72f94e17ab2ba7c96c390ababde42ae6c26d67ec4524d2b692e64736f6c63430008160033\n}\n",
				"bytecode": {
					"linkReferences": {},
					"object": "608060405234801561000f575f80fd5b50335f806101000a81548173ffffffffffffffffffffffffffffffffffffffff021916908373ffffffffffffffffffffffffffffffffffffffff1602179055506109c28061005c5f395ff3fe608060405260043610610033575f3560e01c806369dc9ff3146100375780639ed9331814610074578063f1e8be4814610090575b5f80fd5b348015610042575f80fd5b5061005d6004803603810190610058919061074a565b6100b8565b60405161006b92919061079c565b60405180910390f35b61008e6004803603810190610089919061074a565b61015e565b005b34801561009b575f80fd5b506100b660048036038101906100b1919061074a565b610345565b005b5f8060015f8473ffffffffffffffffffffffffffffffffffffffff1673ffffffffffffffffffffffffffffffffffffffff1681526020019081526020015f205f9054906101000a900473ffffffffffffffffffffffffffffffffffffffff1660025f8573ffffffffffffffffffffffffffffffffffffffff1673ffffffffffffffffffffffffffffffffffffffff1681526020019081526020015f205491509150915091565b5f34116101a0576040517f08c379a00000000000000000000000000000000000000000000000000000000081526004016101979061081d565b60405180910390fd5b5f60025f3373ffffffffffffffffffffffffffffffffffffffff1673ffffffffffffffffffffffffffffffffffffffff1681526020019081526020015f20541115610220576040517f08c379a000000000000000000000000000000000000000000000000000000000815260040161021790610885565b60405180910390fd5b8060015f3373ffffffffffffffffffffffffffffffffffffffff1673ffffffffffffffffffffffffffffffffffffffff1681526020019081526020015f205f6101000a81548173ffffffffffffffffffffffffffffffffffffffff021916908373ffffffffffffffffffffffffffffffffffffffff1602179055503460025f3373ffffffffffffffffffffffffffffffffffffffff1673ffffffffffffffffffffffffffffffffffffffff1681526020019081526020015f20819055508073ffffffffffffffffffffffffffffffffffffffff163373ffffffffffffffffffffffffffffffffffffffff167f923f1fa2c44c3aec741bc0bb74cfdb2d73d61ea532799cda54b2941d89ab9fc63460405161033a91906108a3565b60405180910390a350565b5f8054906101000a900473ffffffffffffffffffffffffffffffffffffffff1673ffffffffffffffffffffffffffffffffffffffff163373ffffffffffffffffffffffffffffffffffffffff16146103d2576040517f08c379a00000000000000000000000000000000000000000000000000000000081526004016103c990610906565b60405180910390fd5b5f60025f8373ffffffffffffffffffffffffffffffffffffffff1673ffffffffffffffffffffffffffffffffffffffff1681526020019081526020015f205411610451576040517f08c379a00000000000000000000000000000000000000000000000000000000081526004016104489061096e565b60405180910390fd5b60015f8273ffffffffffffffffffffffffffffffffffffffff1673ffffffffffffffffffffffffffffffffffffffff1681526020019081526020015f205f9054906101000a900473ffffffffffffffffffffffffffffffffffffffff1673ffffffffffffffffffffffffffffffffffffffff166108fc60025f8473ffffffffffffffffffffffffffffffffffffffff1673ffffffffffffffffffffffffffffffffffffffff1681526020019081526020015f205490811502906040515f60405180830381858888f1935050505015801561052d573d5f803e3d5ffd5b5060015f8273ffffffffffffffffffffffffffffffffffffffff1673ffffffffffffffffffffffffffffffffffffffff1681526020019081526020015f205f9054906101000a900473ffffffffffffffffffffffffffffffffffffffff1673ffffffffffffffffffffffffffffffffffffffff168173ffffffffffffffffffffffffffffffffffffffff167f097a05195c638d41e5eb18e70caf11d13e02b760256803c180748a07982c42b360025f8573ffffffffffffffffffffffffffffffffffffffff1673ffffffffffffffffffffffffffffffffffffffff1681526020019081526020015f205460405161062491906108a3565b60405180910390a35f60015f8373ffffffffffffffffffffffffffffffffffffffff1673ffffffffffffffffffffffffffffffffffffffff1681526020019081526020015f205f6101000a81548173ffffffffffffffffffffffffffffffffffffffff021916908373ffffffffffffffffffffffffffffffffffffffff1602179055505f60025f8373ffffffffffffffffffffffffffffffffffffffff1673ffffffffffffffffffffffffffffffffffffffff1681526020019081526020015f208190555050565b5f80fd5b5f73ffffffffffffffffffffffffffffffffffffffff82169050919050565b5f610719826106f0565b9050919050565b6107298161070f565b8114610733575f80fd5b50565b5f8135905061074481610720565b92915050565b5f6020828403121561075f5761075e6106ec565b5b5f61076c84828501610736565b91505092915050565b61077e8161070f565b82525050565b5f819050919050565b61079681610784565b82525050565b5f6040820190506107af5f830185610775565b6107bc602083018461078d565b9392505050565b5f82825260208201905092915050565b7f416d6f756e74206d7573742067726561746572207468616e207a65726f0000005f82015250565b5f610807601d836107c3565b9150610812826107d3565b602082019050919050565b5f6020820190508181035f830152610834816107fb565b9050919050565b7f596f7572202777696c6c2720616c7265616479206578697374000000000000005f82015250565b5f61086f6019836107c3565b915061087a8261083b565b602082019050919050565b5f6020820190508181035f83015261089c81610863565b9050919050565b5f6020820190506108b65f83018461078d565b92915050565b7f596f757220646f6e27742068617665207065726d697373696f6e0000000000005f82015250565b5f6108f0601a836107c3565b91506108fb826108bc565b602082019050919050565b5f6020820190508181035f83015261091d816108e4565b9050919050565b7f6e6f2074657374616d656e7400000000000000000000000000000000000000005f82015250565b5f610958600c836107c3565b915061096382610924565b602082019050919050565b5f6020820190508181035f8301526109858161094c565b905091905056fea26469706673582212203d74ae664985e72f94e17ab2ba7c96c390ababde42ae6c26d67ec4524d2b692e64736f6c63430008160033",
					"opcodes": "PUSH1 0x80 PUSH1 0x40 MSTORE CALLVALUE DUP1 ISZERO PUSH2 0xF JUMPI PUSH0 DUP1 REVERT JUMPDEST POP CALLER PUSH0 DUP1 PUSH2 0x100 EXP DUP2 SLOAD DUP2 PUSH20 0xFFFFFFFFFFFFFFFFFFFFFFFFFFFFFFFFFFFFFFFF MUL NOT AND SWAP1 DUP4 PUSH20 0xFFFFFFFFFFFFFFFFFFFFFFFFFFFFFFFFFFFFFFFF AND MUL OR SWAP1 SSTORE POP PUSH2 0x9C2 DUP1 PUSH2 0x5C PUSH0 CODECOPY PUSH0 RETURN INVALID PUSH1 0x80 PUSH1 0x40 MSTORE PUSH1 0x4 CALLDATASIZE LT PUSH2 0x33 JUMPI PUSH0 CALLDATALOAD PUSH1 0xE0 SHR DUP1 PUSH4 0x69DC9FF3 EQ PUSH2 0x37 JUMPI DUP1 PUSH4 0x9ED93318 EQ PUSH2 0x74 JUMPI DUP1 PUSH4 0xF1E8BE48 EQ PUSH2 0x90 JUMPI JUMPDEST PUSH0 DUP1 REVERT JUMPDEST CALLVALUE DUP1 ISZERO PUSH2 0x42 JUMPI PUSH0 DUP1 REVERT JUMPDEST POP PUSH2 0x5D PUSH1 0x4 DUP1 CALLDATASIZE SUB DUP2 ADD SWAP1 PUSH2 0x58 SWAP2 SWAP1 PUSH2 0x74A JUMP JUMPDEST PUSH2 0xB8 JUMP JUMPDEST PUSH1 0x40 MLOAD PUSH2 0x6B SWAP3 SWAP2 SWAP1 PUSH2 0x79C JUMP JUMPDEST PUSH1 0x40 MLOAD DUP1 SWAP2 SUB SWAP1 RETURN JUMPDEST PUSH2 0x8E PUSH1 0x4 DUP1 CALLDATASIZE SUB DUP2 ADD SWAP1 PUSH2 0x89 SWAP2 SWAP1 PUSH2 0x74A JUMP JUMPDEST PUSH2 0x15E JUMP JUMPDEST STOP JUMPDEST CALLVALUE DUP1 ISZERO PUSH2 0x9B JUMPI PUSH0 DUP1 REVERT JUMPDEST POP PUSH2 0xB6 PUSH1 0x4 DUP1 CALLDATASIZE SUB DUP2 ADD SWAP1 PUSH2 0xB1 SWAP2 SWAP1 PUSH2 0x74A JUMP JUMPDEST PUSH2 0x345 JUMP JUMPDEST STOP JUMPDEST PUSH0 DUP1 PUSH1 0x1 PUSH0 DUP5 PUSH20 0xFFFFFFFFFFFFFFFFFFFFFFFFFFFFFFFFFFFFFFFF AND PUSH20 0xFFFFFFFFFFFFFFFFFFFFFFFFFFFFFFFFFFFFFFFF AND DUP2 MSTORE PUSH1 0x20 ADD SWAP1 DUP2 MSTORE PUSH1 0x20 ADD PUSH0 KECCAK256 PUSH0 SWAP1 SLOAD SWAP1 PUSH2 0x100 EXP SWAP1 DIV PUSH20 0xFFFFFFFFFFFFFFFFFFFFFFFFFFFFFFFFFFFFFFFF AND PUSH1 0x2 PUSH0 DUP6 PUSH20 0xFFFFFFFFFFFFFFFFFFFFFFFFFFFFFFFFFFFFFFFF AND PUSH20 0xFFFFFFFFFFFFFFFFFFFFFFFFFFFFFFFFFFFFFFFF AND DUP2 MSTORE PUSH1 0x20 ADD SWAP1 DUP2 MSTORE PUSH1 0x20 ADD PUSH0 KECCAK256 SLOAD SWAP2 POP SWAP2 POP SWAP2 POP SWAP2 JUMP JUMPDEST PUSH0 CALLVALUE GT PUSH2 0x1A0 JUMPI PUSH1 0x40 MLOAD PUSH32 0x8C379A000000000000000000000000000000000000000000000000000000000 DUP2 MSTORE PUSH1 0x4 ADD PUSH2 0x197 SWAP1 PUSH2 0x81D JUMP JUMPDEST PUSH1 0x40 MLOAD DUP1 SWAP2 SUB SWAP1 REVERT JUMPDEST PUSH0 PUSH1 0x2 PUSH0 CALLER PUSH20 0xFFFFFFFFFFFFFFFFFFFFFFFFFFFFFFFFFFFFFFFF AND PUSH20 0xFFFFFFFFFFFFFFFFFFFFFFFFFFFFFFFFFFFFFFFF AND DUP2 MSTORE PUSH1 0x20 ADD SWAP1 DUP2 MSTORE PUSH1 0x20 ADD PUSH0 KECCAK256 SLOAD GT ISZERO PUSH2 0x220 JUMPI PUSH1 0x40 MLOAD PUSH32 0x8C379A000000000000000000000000000000000000000000000000000000000 DUP2 MSTORE PUSH1 0x4 ADD PUSH2 0x217 SWAP1 PUSH2 0x885 JUMP JUMPDEST PUSH1 0x40 MLOAD DUP1 SWAP2 SUB SWAP1 REVERT JUMPDEST DUP1 PUSH1 0x1 PUSH0 CALLER PUSH20 0xFFFFFFFFFFFFFFFFFFFFFFFFFFFFFFFFFFFFFFFF AND PUSH20 0xFFFFFFFFFFFFFFFFFFFFFFFFFFFFFFFFFFFFFFFF AND DUP2 MSTORE PUSH1 0x20 ADD SWAP1 DUP2 MSTORE PUSH1 0x20 ADD PUSH0 KECCAK256 PUSH0 PUSH2 0x100 EXP DUP2 SLOAD DUP2 PUSH20 0xFFFFFFFFFFFFFFFFFFFFFFFFFFFFFFFFFFFFFFFF MUL NOT AND SWAP1 DUP4 PUSH20 0xFFFFFFFFFFFFFFFFFFFFFFFFFFFFFFFFFFFFFFFF AND MUL OR SWAP1 SSTORE POP CALLVALUE PUSH1 0x2 PUSH0 CALLER PUSH20 0xFFFFFFFFFFFFFFFFFFFFFFFFFFFFFFFFFFFFFFFF AND PUSH20 0xFFFFFFFFFFFFFFFFFFFFFFFFFFFFFFFFFFFFFFFF AND DUP2 MSTORE PUSH1 0x20 ADD SWAP1 DUP2 MSTORE PUSH1 0x20 ADD PUSH0 KECCAK256 DUP2 SWAP1 SSTORE POP DUP1 PUSH20 0xFFFFFFFFFFFFFFFFFFFFFFFFFFFFFFFFFFFFFFFF AND CALLER PUSH20 0xFFFFFFFFFFFFFFFFFFFFFFFFFFFFFFFFFFFFFFFF AND PUSH32 0x923F1FA2C44C3AEC741BC0BB74CFDB2D73D61EA532799CDA54B2941D89AB9FC6 CALLVALUE PUSH1 0x40 MLOAD PUSH2 0x33A SWAP2 SWAP1 PUSH2 0x8A3 JUMP JUMPDEST PUSH1 0x40 MLOAD DUP1 SWAP2 SUB SWAP1 LOG3 POP JUMP JUMPDEST PUSH0 DUP1 SLOAD SWAP1 PUSH2 0x100 EXP SWAP1 DIV PUSH20 0xFFFFFFFFFFFFFFFFFFFFFFFFFFFFFFFFFFFFFFFF AND PUSH20 0xFFFFFFFFFFFFFFFFFFFFFFFFFFFFFFFFFFFFFFFF AND CALLER PUSH20 0xFFFFFFFFFFFFFFFFFFFFFFFFFFFFFFFFFFFFFFFF AND EQ PUSH2 0x3D2 JUMPI PUSH1 0x40 MLOAD PUSH32 0x8C379A000000000000000000000000000000000000000000000000000000000 DUP2 MSTORE PUSH1 0x4 ADD PUSH2 0x3C9 SWAP1 PUSH2 0x906 JUMP JUMPDEST PUSH1 0x40 MLOAD DUP1 SWAP2 SUB SWAP1 REVERT JUMPDEST PUSH0 PUSH1 0x2 PUSH0 DUP4 PUSH20 0xFFFFFFFFFFFFFFFFFFFFFFFFFFFFFFFFFFFFFFFF AND PUSH20 0xFFFFFFFFFFFFFFFFFFFFFFFFFFFFFFFFFFFFFFFF AND DUP2 MSTORE PUSH1 0x20 ADD SWAP1 DUP2 MSTORE PUSH1 0x20 ADD PUSH0 KECCAK256 SLOAD GT PUSH2 0x451 JUMPI PUSH1 0x40 MLOAD PUSH32 0x8C379A000000000000000000000000000000000000000000000000000000000 DUP2 MSTORE PUSH1 0x4 ADD PUSH2 0x448 SWAP1 PUSH2 0x96E JUMP JUMPDEST PUSH1 0x40 MLOAD DUP1 SWAP2 SUB SWAP1 REVERT JUMPDEST PUSH1 0x1 PUSH0 DUP3 PUSH20 0xFFFFFFFFFFFFFFFFFFFFFFFFFFFFFFFFFFFFFFFF AND PUSH20 0xFFFFFFFFFFFFFFFFFFFFFFFFFFFFFFFFFFFFFFFF AND DUP2 MSTORE PUSH1 0x20 ADD SWAP1 DUP2 MSTORE PUSH1 0x20 ADD PUSH0 KECCAK256 PUSH0 SWAP1 SLOAD SWAP1 PUSH2 0x100 EXP SWAP1 DIV PUSH20 0xFFFFFFFFFFFFFFFFFFFFFFFFFFFFFFFFFFFFFFFF AND PUSH20 0xFFFFFFFFFFFFFFFFFFFFFFFFFFFFFFFFFFFFFFFF AND PUSH2 0x8FC PUSH1 0x2 PUSH0 DUP5 PUSH20 0xFFFFFFFFFFFFFFFFFFFFFFFFFFFFFFFFFFFFFFFF AND PUSH20 0xFFFFFFFFFFFFFFFFFFFFFFFFFFFFFFFFFFFFFFFF AND DUP2 MSTORE PUSH1 0x20 ADD SWAP1 DUP2 MSTORE PUSH1 0x20 ADD PUSH0 KECCAK256 SLOAD SWAP1 DUP2 ISZERO MUL SWAP1 PUSH1 0x40 MLOAD PUSH0 PUSH1 0x40 MLOAD DUP1 DUP4 SUB DUP2 DUP6 DUP9 DUP9 CALL SWAP4 POP POP POP POP ISZERO DUP1 ISZERO PUSH2 0x52D JUMPI RETURNDATASIZE PUSH0 DUP1 RETURNDATACOPY RETURNDATASIZE PUSH0 REVERT JUMPDEST POP PUSH1 0x1 PUSH0 DUP3 PUSH20 0xFFFFFFFFFFFFFFFFFFFFFFFFFFFFFFFFFFFFFFFF AND PUSH20 0xFFFFFFFFFFFFFFFFFFFFFFFFFFFFFFFFFFFFFFFF AND DUP2 MSTORE PUSH1 0x20 ADD SWAP1 DUP2 MSTORE PUSH1 0x20 ADD PUSH0 KECCAK256 PUSH0 SWAP1 SLOAD SWAP1 PUSH2 0x100 EXP SWAP1 DIV PUSH20 0xFFFFFFFFFFFFFFFFFFFFFFFFFFFFFFFFFFFFFFFF AND PUSH20 0xFFFFFFFFFFFFFFFFFFFFFFFFFFFFFFFFFFFFFFFF AND DUP2 PUSH20 0xFFFFFFFFFFFFFFFFFFFFFFFFFFFFFFFFFFFFFFFF AND PUSH32 0x97A05195C638D41E5EB18E70CAF11D13E02B760256803C180748A07982C42B3 PUSH1 0x2 PUSH0 DUP6 PUSH20 0xFFFFFFFFFFFFFFFFFFFFFFFFFFFFFFFFFFFFFFFF AND PUSH20 0xFFFFFFFFFFFFFFFFFFFFFFFFFFFFFFFFFFFFFFFF AND DUP2 MSTORE PUSH1 0x20 ADD SWAP1 DUP2 MSTORE PUSH1 0x20 ADD PUSH0 KECCAK256 SLOAD PUSH1 0x40 MLOAD PUSH2 0x624 SWAP2 SWAP1 PUSH2 0x8A3 JUMP JUMPDEST PUSH1 0x40 MLOAD DUP1 SWAP2 SUB SWAP1 LOG3 PUSH0 PUSH1 0x1 PUSH0 DUP4 PUSH20 0xFFFFFFFFFFFFFFFFFFFFFFFFFFFFFFFFFFFFFFFF AND PUSH20 0xFFFFFFFFFFFFFFFFFFFFFFFFFFFFFFFFFFFFFFFF AND DUP2 MSTORE PUSH1 0x20 ADD SWAP1 DUP2 MSTORE PUSH1 0x20 ADD PUSH0 KECCAK256 PUSH0 PUSH2 0x100 EXP DUP2 SLOAD DUP2 PUSH20 0xFFFFFFFFFFFFFFFFFFFFFFFFFFFFFFFFFFFFFFFF MUL NOT AND SWAP1 DUP4 PUSH20 0xFFFFFFFFFFFFFFFFFFFFFFFFFFFFFFFFFFFFFFFF AND MUL OR SWAP1 SSTORE POP PUSH0 PUSH1 0x2 PUSH0 DUP4 PUSH20 0xFFFFFFFFFFFFFFFFFFFFFFFFFFFFFFFFFFFFFFFF AND PUSH20 0xFFFFFFFFFFFFFFFFFFFFFFFFFFFFFFFFFFFFFFFF AND DUP2 MSTORE PUSH1 0x20 ADD SWAP1 DUP2 MSTORE PUSH1 0x20 ADD PUSH0 KECCAK256 DUP2 SWAP1 SSTORE POP POP JUMP JUMPDEST PUSH0 DUP1 REVERT JUMPDEST PUSH0 PUSH20 0xFFFFFFFFFFFFFFFFFFFFFFFFFFFFFFFFFFFFFFFF DUP3 AND SWAP1 POP SWAP2 SWAP1 POP JUMP JUMPDEST PUSH0 PUSH2 0x719 DUP3 PUSH2 0x6F0 JUMP JUMPDEST SWAP1 POP SWAP2 SWAP1 POP JUMP JUMPDEST PUSH2 0x729 DUP2 PUSH2 0x70F JUMP JUMPDEST DUP2 EQ PUSH2 0x733 JUMPI PUSH0 DUP1 REVERT JUMPDEST POP JUMP JUMPDEST PUSH0 DUP2 CALLDATALOAD SWAP1 POP PUSH2 0x744 DUP2 PUSH2 0x720 JUMP JUMPDEST SWAP3 SWAP2 POP POP JUMP JUMPDEST PUSH0 PUSH1 0x20 DUP3 DUP5 SUB SLT ISZERO PUSH2 0x75F JUMPI PUSH2 0x75E PUSH2 0x6EC JUMP JUMPDEST JUMPDEST PUSH0 PUSH2 0x76C DUP5 DUP3 DUP6 ADD PUSH2 0x736 JUMP JUMPDEST SWAP2 POP POP SWAP3 SWAP2 POP POP JUMP JUMPDEST PUSH2 0x77E DUP2 PUSH2 0x70F JUMP JUMPDEST DUP3 MSTORE POP POP JUMP JUMPDEST PUSH0 DUP2 SWAP1 POP SWAP2 SWAP1 POP JUMP JUMPDEST PUSH2 0x796 DUP2 PUSH2 0x784 JUMP JUMPDEST DUP3 MSTORE POP POP JUMP JUMPDEST PUSH0 PUSH1 0x40 DUP3 ADD SWAP1 POP PUSH2 0x7AF PUSH0 DUP4 ADD DUP6 PUSH2 0x775 JUMP JUMPDEST PUSH2 0x7BC PUSH1 0x20 DUP4 ADD DUP5 PUSH2 0x78D JUMP JUMPDEST SWAP4 SWAP3 POP POP POP JUMP JUMPDEST PUSH0 DUP3 DUP3 MSTORE PUSH1 0x20 DUP3 ADD SWAP1 POP SWAP3 SWAP2 POP POP JUMP JUMPDEST PUSH32 0x416D6F756E74206D7573742067726561746572207468616E207A65726F000000 PUSH0 DUP3 ADD MSTORE POP JUMP JUMPDEST PUSH0 PUSH2 0x807 PUSH1 0x1D DUP4 PUSH2 0x7C3 JUMP JUMPDEST SWAP2 POP PUSH2 0x812 DUP3 PUSH2 0x7D3 JUMP JUMPDEST PUSH1 0x20 DUP3 ADD SWAP1 POP SWAP2 SWAP1 POP JUMP JUMPDEST PUSH0 PUSH1 0x20 DUP3 ADD SWAP1 POP DUP2 DUP2 SUB PUSH0 DUP4 ADD MSTORE PUSH2 0x834 DUP2 PUSH2 0x7FB JUMP JUMPDEST SWAP1 POP SWAP2 SWAP1 POP JUMP JUMPDEST PUSH32 0x596F7572202777696C6C2720616C726561647920657869737400000000000000 PUSH0 DUP3 ADD MSTORE POP JUMP JUMPDEST PUSH0 PUSH2 0x86F PUSH1 0x19 DUP4 PUSH2 0x7C3 JUMP JUMPDEST SWAP2 POP PUSH2 0x87A DUP3 PUSH2 0x83B JUMP JUMPDEST PUSH1 0x20 DUP3 ADD SWAP1 POP SWAP2 SWAP1 POP JUMP JUMPDEST PUSH0 PUSH1 0x20 DUP3 ADD SWAP1 POP DUP2 DUP2 SUB PUSH0 DUP4 ADD MSTORE PUSH2 0x89C DUP2 PUSH2 0x863 JUMP JUMPDEST SWAP1 POP SWAP2 SWAP1 POP JUMP JUMPDEST PUSH0 PUSH1 0x20 DUP3 ADD SWAP1 POP PUSH2 0x8B6 PUSH0 DUP4 ADD DUP5 PUSH2 0x78D JUMP JUMPDEST SWAP3 SWAP2 POP POP JUMP JUMPDEST PUSH32 0x596F757220646F6E27742068617665207065726D697373696F6E000000000000 PUSH0 DUP3 ADD MSTORE POP JUMP JUMPDEST PUSH0 PUSH2 0x8F0 PUSH1 0x1A DUP4 PUSH2 0x7C3 JUMP JUMPDEST SWAP2 POP PUSH2 0x8FB DUP3 PUSH2 0x8BC JUMP JUMPDEST PUSH1 0x20 DUP3 ADD SWAP1 POP SWAP2 SWAP1 POP JUMP JUMPDEST PUSH0 PUSH1 0x20 DUP3 ADD SWAP1 POP DUP2 DUP2 SUB PUSH0 DUP4 ADD MSTORE PUSH2 0x91D DUP2 PUSH2 0x8E4 JUMP JUMPDEST SWAP1 POP SWAP2 SWAP1 POP JUMP JUMPDEST PUSH32 0x6E6F2074657374616D656E740000000000000000000000000000000000000000 PUSH0 DUP3 ADD MSTORE POP JUMP JUMPDEST PUSH0 PUSH2 0x958 PUSH1 0xC DUP4 PUSH2 0x7C3 JUMP JUMPDEST SWAP2 POP PUSH2 0x963 DUP3 PUSH2 0x924 JUMP JUMPDEST PUSH1 0x20 DUP3 ADD SWAP1 POP SWAP2 SWAP1 POP JUMP JUMPDEST PUSH0 PUSH1 0x20 DUP3 ADD SWAP1 POP DUP2 DUP2 SUB PUSH0 DUP4 ADD MSTORE PUSH2 0x985 DUP2 PUSH2 0x94C JUMP JUMPDEST SWAP1 POP SWAP2 SWAP1 POP JUMP INVALID LOG2 PUSH5 0x6970667358 0x22 SLT KECCAK256 RETURNDATASIZE PUSH21 0xAE664985E72F94E17AB2BA7C96C390ABABDE42AE6C 0x26 0xD6 PUSH31 0xC4524D2B692E64736F6C634300081600330000000000000000000000000000 "
				},
				"gasEstimates": {
					"creation": {
						"codeDepositCost": "499600",
						"executionCost": "24800",
						"totalCost": "524400"
					},
					"external": {
						"contracts(address)": "infinite",
						"create(address)": "51165",
						"deceased(address)": "infinite"
					}
				},
				"methodIdentifiers": {
					"contracts(address)": "69dc9ff3",
					"create(address)": "9ed93318",
					"deceased(address)": "f1e8be48"
				}
			},
			"storageLayout": {
				"storage": [
					{
						"astId": 3,
						"contract": "Contracts/Will.sol:Will",
						"label": "_admin",
						"offset": 0,
						"slot": "0",
						"type": "t_address"
					},
					{
						"astId": 7,
						"contract": "Contracts/Will.sol:Will",
						"label": "_heirs",
						"offset": 0,
						"slot": "1",
						"type": "t_mapping(t_address,t_address)"
					},
					{
						"astId": 11,
						"contract": "Contracts/Will.sol:Will",
						"label": "_balances",
						"offset": 0,
						"slot": "2",
						"type": "t_mapping(t_address,t_uint256)"
					}
				],
				"types": {
					"t_address": {
						"encoding": "inplace",
						"label": "address",
						"numberOfBytes": "20"
					},
					"t_mapping(t_address,t_address)": {
						"encoding": "mapping",
						"key": "t_address",
						"label": "mapping(address => address)",
						"numberOfBytes": "32",
						"value": "t_address"
					},
					"t_mapping(t_address,t_uint256)": {
						"encoding": "mapping",
						"key": "t_address",
						"label": "mapping(address => uint256)",
						"numberOfBytes": "32",
						"value": "t_uint256"
					},
					"t_uint256": {
						"encoding": "inplace",
						"label": "uint256",
						"numberOfBytes": "32"
					}
				}
			},
			"userdoc": {
				"kind": "user",
				"methods": {},
				"version": 1
			}
		}
	}
}